:100000000C9442010C9473010C9473010C947301D1
:100010000C9473010C9473010C9473010C94730190
:100020000C9473010C9473010C9473010C94730180
:100030000C9473010C9473010C9473010C94730170
:100040000C9473010C9473010C9473010C94730160
:100050000C9473010C9473010C9473010C943E077F
:100060000C9473010C9473010C9473010C94730140
:100070000C9473010C9473010C9473010C94730130
:100080000C9473010C9473010C9473010C94730120
:100090000C9473010C9473010C9473010C948807F5
:1000A0000C9473010C9473010C9473010C94730100
:1000B0000C9473010C9473010C9473010C947301F0
:1000C0000C9473010C9473010C9473010C947301E0
:1000D0000C9473010C9473010C9473010C947301D0
:1000E0000C9473010C9468030C9493010C94BF035B
:1000F0000C94AE010C9492030C948B030C94A1010C
:100100000C949D010C9478030C9499010C94D401E7
:100110000C94A5010C94D3010C9401030C94D4020B
:100120000C94BC010C94B8010C9469030C94D80194
:100130000C94D5040C94D2020C94B2010C94C0011E
:100140000C946F0C0C94C6010C9442050C94CE01D7
:100150000C94CA010C94D3020C94A8010C94AC0822
:1001600000002100240027002A002D003000330069
:1001700001010000040107010A010000220025001E
:1001800028002B002E003100340002010000050180
:1001900008010B01000020002300260029002C008C
:1001A0002F003200000100000301060109010505CE
:1001B0000505070508080808020202020A0A0808DD
:1001C000040404040101010101010101030303030B
:1001D00003030303040707070C0C0C0C0C0C0C0C9A
:1001E0000202020206060606060606060B0B0B0BAB
:1001F0000B0B0B0B010210202008081020401020D0
:1002000040800201020108040201010204081020DA
:1002100040808040201008040201800402018040D8
:100220002010080402010804020101020408102041
:100230004080010204081020408000000A0B0209DF
:100240000C0D0E0807030401000000000000000070
:10025000000000000000000000000000000000009E
:10026000000000000000121110000000000000005B
:10027000000000000000000000000000000000007E
:10028000AC086F0C11241FBECFEFD1E2DEBFCDBF93
:1002900000E00CBF12E0A0E0B2E0E0E1F2E200E03A
:1002A0000BBF02C007900D92A03FB107D9F723E022
:1002B000A0EFB2E001C01D92A23EB207E1F711E04B
:1002C000C1E4D1E000E006C021970109802FFE01C2
:1002D0000E94C80EC034D10780E00807A9F70E9429
:1002E000D7080C94F6100C9400008150823108F06D
:1002F0005AC0E82FF0E08827EF57FE4F8F4F0C943D
:10030000C80EA101A501930199019D01D301A80186
:10031000AE01B201B801BC01C001C601CA01D301DE
:10032000CE01D401D801809180008F778093800026
:100330000895809180008F7DF9CF80918000877F24
:10034000F5CF84B58F7784BD089584B58F7DFBCFBD
:100350008091B0008F778093B00008958091B000B5
:100360008F7DF9CF809190008F77809390000895D2
:10037000809190008F7DF9CF80919000877FF5CF9D
:100380008091A0008F778093A00008958091A000B5
:100390008F7DF9CF8091A000877FF5CF80912001DC
:1003A0008F77809320010895809120018F7DF9CF70
:1003B00080912001877FF5CFCF93DF93282F30E006
:1003C000F901E65CFD4F8491F901EC50FE4FD491A8
:1003D000F901E255FE4FC491CC23A1F081110E9496
:1003E0007501EC2FF0E0EE0FFF1FEC56FE4FA591CC
:1003F000B491EC91ED2381E090E009F480E0DF918D
:10040000CF91089580E090E0FACF1F93CF93DF93D0
:10041000282F30E0F901E65CFD4F8491F901EC50A2
:10042000FE4FD491F901E255FE4FC491CC23A9F0BF
:10043000162F81110E947501EC2FF0E0EE0FFF1FC7
:10044000E658FE4FA591B4918FB7F894EC91111135
:1004500008C0D095DE23DC938FBFDF91CF911F9131
:100460000895DE2BF8CFCF93DF9390E0FC01EC50A2
:10047000FE4F249182559E4FFC0184918823D1F038
:1004800090E0880F991FFC01E05AFE4FA591B491AE
:10049000FC01E658FE4FC591D491623071F49FB7CC
:1004A000F8943C91822F809583238C93E8812E2BA6
:1004B00028839FBFDF91CF9108958FB7F894EC9177
:1004C0002E2B2C938FBFF6CF90917B00977F90932C
:1004D0007B008653806480937C0080917A008064E6
:1004E00080937A0080917A0086FDFCCF809178001D
:1004F0009091790008953FB7F8948091B603909158
:10050000B703A091B803B091B90326B5A89B05C065
:100510002F3F19F00196A11DB11D3FBFBA2FA92F82
:10052000982F8827BC01CD01620F711D811D911D7F
:1005300042E0660F771F881F991F4A95D1F70895EB
:100540008F929F92AF92BF92CF92DF92EF92FF92E3
:100550004B015C010E947B026B017C010E947B02CB
:100560006C197D098E099F09683E734081059105CC
:10057000A8F321E0821A9108A108B10888EEC80EFC
:1005800083E0D81EE11CF11C81149104A104B10484
:1005900029F7FF90EF90DF90CF90BF90AF909F90A2
:1005A0008F90089508950895AF92BF92CF92DF92F1
:1005B000EF92FF920F931F93CF93DF936C017B0118
:1005C0008B01040F151FEB015E01AE18BF08C017A9
:1005D000D10759F06991D601ED91FC910190F0811C
:1005E000E02DC6011995892B79F7C501DF91CF91CF
:1005F0001F910F91FF90EF90DF90CF90BF90AF9041
:100600000895089520913103260F3327331F213297
:100610003105ECF420917A03FC0190E080E0243075
:1006200069F082E00895A09131032191AC014F5E01
:100630005C4FA40FB52FB11D2C930196861798F32C
:1006400080913103680F6093310380E0089581E069
:10065000089510927A0381E08093790310925403F5
:1006600061E084E10E94050261E085E10E940502EB
:10067000E9EBF0E080818E7F808380818D7F8083B5
:1006800088E48093B80085E48093BC000895CF93FC
:10069000DF9391E0909310038823B9F0C091B800E4
:1006A000D091BA008091BC008A7B8093BC0060E04E
:1006B00084E10E94050260E085E10E9405020E943B
:1006C0002903D093BA00C093B800DF91CF91089569
:1006D0000895E091A9038091A803E81730F4F0E0B1
:1006E000E051FD4F808190E008958FEF9FEF0895D6
:1006F0009091A9038091A8032FEF3FEF981748F43A
:10070000E92FF0E0E051FD4F208130E09F5F9093B2
:10071000A903C90108958091A8039091A903891B99
:10072000990B0895CF92DF92EF92FF920F931F9350
:10073000CF93DF937C01CB018A0120918003222398
:1007400089F0EB016B01C40ED51ECC15DD0569F0F7
:100750006991D701ED91FC910190F081E02DC701E5
:100760001995F3CF642F0E940203C801DF91CF9146
:100770001F910F91FF90EF90DF90CF900895CF934E
:10078000DF931F92CDB7DEB76983209180032223C8
:10079000F9F02091A603203258F021E030E0FC016E
:1007A0003383228390E080E00F90DF91CF91089512
:1007B0008091A703E82FF0E0EF57FC4F99819083D9
:1007C0008F5F8093A7038093A60381E090E0ECCF36
:1007D00061E0CE0101960E940203F7CFCF92DF9233
:1007E000EF92FF920F931F93CF93DF93FC01C4818D
:1007F00021E020938003C093A1031092A7031092DD
:10080000A6038385682B8AEB93E00E94BF03D091F7
:10081000A603D13208F092C00E947B026B017C01DA
:1008200080917A03811165C082E080937A0381E030
:10083000809379038FEF8093780310927703D0939E
:100840007603A1E8B3E0E6E5F3E080E0D81385C0E5
:100850001092550380915503CC0FC82BC0935503BC
:1008600080915403813009F07CC0109254030E949F
:100870007B026B017C01809155038093BB008091CA
:100880007C0390917D03A0917E03B0917F03892B1F
:100890008A2B8B2B99F00E947B0200917C03109194
:1008A0007D0320917E0330917F036C197D098E09B1
:1008B0009F090617170728073907E0F18091BC0048
:1008C00083FDD9CF85EC8093BC000E947B026B0135
:1008D0007C0180917A03823009F445C080917803CD
:1008E0008F3F61F180917803803241F180917803EC
:1008F00025C080917C0390917D03A0917E03B091EF
:100900007F03892B8A2B8B2B09F48ACF0E947B02D1
:1009100000917C0310917D0320917E0330917F0331
:100920006C197D098E099F090617170728073907D3
:1009300008F076CF80917B030E9447031092A703B3
:100940001092A60310928003DF91CF911F910F9117
:10095000FF90EF90DF90CF9008959D9191938F5FDE
:1009600075CF85EEB0CF80917C0390917D03A091EF
:100970007E03B0917F03892B8A2B8B2B09F4A9CF9F
:100980000E947B0200917C0310917D0320917E03E5
:1009900030917F036C197D098E099F09061717078F
:1009A0002807390708F095CFC5CF90E080E008957B
:1009B0000F931F93CF938C01C62F0E94EE036C2FD1
:1009C0006460C8010E94EE036C2F6B7FC8010E9417
:1009D000EE0383EC90E00197F1F7CF911F910F9117
:1009E00008950F931F93CF93DF938C01D62FC42FBD
:1009F000607F642B0E94D80480E1D89FB00111244D
:100A00006C2BC801DF91CF911F910F910C94D804EA
:100A100040E061E082ED93E00E94F1048BE39FE10E
:100A20000197F1F70895CF93DF9300D000D01F9284
:100A30001F92CDB7DEB798E0EAE0F2E0DE01119652
:100A400001900D929A95E1F79091DA03981708F4C6
:100A50008FEF90E0880F991F21E030E02C0F3D1FB1
:100A6000820F931FFC016081606840E082ED93E09B
:100A700028960FB6F894DEBF0FBECDBFDF91CF91A1
:100A80000C94F10441E00E94F10481E090E00895AB
:100A90008F929F92AF92BF920F931F93CF93DF934A
:100AA000CDB7DEB7A1970FB6F894DEBF0FBECDBFAE
:100AB00019A2423008F44AE08E010F5D1F4F842EC8
:100AC000912CB12CA12CA50194010E94EA0DE62FD6
:100AD000B901CA01EA3044F5E05DD801EE938D0119
:100AE000232B242B252B79F790E080E0109769F0D9
:100AF000FD0101900020E9F73197AF014A1B5B0B24
:100B0000BD0182ED93E00E94D402A1960FB6F89445
:100B1000DEBF0FBECDBFDF91CF911F910F91BF9070
:100B2000AF909F908F900895E95CD7CFFC01019022
:100B30000020E9F73197AF01481B590BBC0182ED4A
:100B400093E00C94D402CF93DF93EC01A881B98198
:100B5000EB01E881F9811097F1F03097B1F4EC01E5
:100B60008C819D81892BC9F08C9190E00BC0DB01B9
:100B700014968D919C91892B81F0808190E09195C4
:100B800081959109DF91CF910895BF01CD01DF914A
:100B9000CF910C94E610309751F790E080E0F2CFBF
:100BA0000F931F93CF93DF93EC0188819981009776
:100BB00059F02A813B812617370730F081E0DF9119
:100BC000CF911F910F9108958B016F5F7F4F0E940E
:100BD000FC0F009759F0998388831B830A832C812B
:100BE0003D81232B59F7FC011082E8CF80E0E7CF4D
:100BF000EF92FF920F931F93CF93DF9361157105CF
:100C000041F480E0DF91CF911F910F91FF90EF9021
:100C1000089541155105B1F07B01EC010C811D8156
:100C2000040F151FB8010E94D005882351F32881B5
:100C300039818C819D81B701820F931F0E94EF1033
:100C40001D830C8381E0DECFCF93DF93EC0188819D
:100C50009981009711F00E94730F198218821D82EA
:100C60001C821B821A82DF91CF910895EF92FF922E
:100C70000F931F93CF93DF93EC017B018A01BA019D
:100C80000E94D00581110BC0CE010E942406CE0126
:100C9000DF91CF911F910F91FF90EF9008951D83E9
:100CA0000C83B701888199810E94EF10F0CFFB017E
:100CB00001900020E9F73197AF01461B570B0C94C8
:100CC0003606CF93DF93EC01FB018617970749F0B7
:100CD000608171816115710541F0448155810E94E7
:100CE0003606CE01DF91CF9108950E942406F9CFF8
:100CF000CF92DF92EF92FF920F931F93CF93DF93E8
:100D00008C01EB0169017A01FC012481358180911C
:100D1000D0039091D10328173907C1F46CEC73E02C
:100D2000C8010E94A305892B89F42C813D81809103
:100D3000CA039091CB032817390741F466EC73E09E
:100D4000CE010E94A305892B09F43EC00E9408052C
:100D500080E00E941305F801448155816081718112
:100D600082ED93E00E94D40281E00E9413054C8141
:100D70005D816881798182ED93E00E94D402B8019F
:100D80008CEC93E00E946106BE0186EC93E00E9429
:100D900061062FB7F8948091B2039091B303A091AC
:100DA000B403B091B5032FBF8093AD039093AE030E
:100DB000A093AF03B093B003C0920002D09201029F
:100DC000E0920202F0920302DF91CF911F910F9106
:100DD000FF90EF90DF90CF900895FC011182108278
:100DE0001382128215821482FB0101900020E9F720
:100DF0003197AF01461B570B0C943606FC018081DE
:100E00009181009711F00C94730F089585ED8093F4
:100E1000BC0080917C0390917D03A0917E03B091F2
:100E20007F030796A11DB11D23E0B695A795979561
:100E300087952A95D1F72091BC0024FD03C010921C
:100E40007A03089540917C0350917D0360917E0365
:100E500070917F03452B462B472B69F30097A10523
:100E6000B10541F02AE22A95F1F700C00197A109E6
:100E7000B109E1CF80917B030C9447031F920F923D
:100E80000FB60F9211242F933F938F939F93AF939D
:100E9000BF938091B2039091B303A091B403B0913A
:100EA000B5033091B10323E0230F2D3758F5019698
:100EB000A11DB11D2093B1038093B2039093B3039E
:100EC000A093B403B093B5038091B6039091B70398
:100ED000A091B803B091B9030196A11DB11D8093F3
:100EE000B6039093B703A093B803B093B903BF912F
:100EF000AF919F918F913F912F910F900FBE0F90C7
:100F00001F90189526E8230F0296A11DB11DD2CF80
:100F10001F920F920FB60F9211240BB60F922F93C0
:100F20003F934F935F936F937F938F939F93AF9371
:100F3000BF93EF93FF938091B900887F803609F4C7
:100F40004DC008F040C0883209F4A9C028F58031AE
:100F500009F49DC0C8F4882309F4FBC0883009F463
:100F600096C0FF91EF91BF91AF919F918F917F912B
:100F70006F915F914F913F912F910F900BBE0F900A
:100F80000FBE0F901F901895883109F488C08032E9
:100F900041F78093780314C0803409F49DC040F475
:100FA0008033B9F38833E9F68093780385ECB0C0D9
:100FB000803509F485C0883509F496C0883489F6EF
:100FC0000E940607CECF883909F48CC038F58837DF
:100FD00029F050F4883611F0803719F683E08093B9
:100FE0007A031092530357C0883809F47BC08039C4
:100FF00019F0803809F0B5CF80915303803208F0A2
:1010000071C0E091530381E08E0F80935303809170
:10101000BB00F0E0ED5CFC4F80833DC0803B39F0CD
:10102000E0F4803A09F479C0883A09F09ACF84E074
:1010300080937A031092320310923103E091A4035B
:10104000F091A50319958091310381110FC081E0C2
:10105000809331031092110309C0803C09F4A6CF9C
:10106000883C09F4A3CF883B09F07BCFE0913203A1
:1010700081E08E0F80933203F0E0EF5EFC4F8081C1
:101080008093BB00909132038091310329C08091FD
:1010900055038093BB0085EC8093BC0062CF909198
:1010A000770380917603981758F5E091770381E0F4
:1010B0008E0F80937703F0E0EA5AFC4F8081E9CFEE
:1010C000E091770381E08E0F809377038091BB00DE
:1010D000F0E0EA5AFC4F8083909177038091760389
:1010E0009817C8F285E8D8CFE091770381E08E0F9A
:1010F000809377038091BB00F0E0EA5AFC4F808335
:101100008091790381115CCF81E08093540384EA5C
:101110008093BC0010927A0324CF85EC8093BC00AE
:1011200010927A0380915303803230F4E09153039C
:10113000F0E0ED5CFC4F10826091530370E0E091B1
:10114000A203F091A30383E393E019951092530354
:1011500008CF1092780334CFEAEBF3E013821282C7
:1011600088EE93E0A0E0B0E084839583A683B78304
:1011700086E192E091838083E2EDF3E013821282B4
:1011800088E292E0918380838FE3848380E181878A
:1011900082E0828713866BEC72E08CEC93E00E9415
:1011A000ED066BEC72E086EC93E00C94ED06CF93C9
:1011B000DF93CDB7DEB7A6970FB6F894DEBF0FBEAC
:1011C000CDBF789484B5826084BD84B5816084BDD0
:1011D00085B5826085BD85B5816085BD80916E00D5
:1011E000816080936E001092810080918100826006
:1011F0008093810080918100816080938100809143
:1012000080008160809380008091B1008460809331
:10121000B1008091B00081608093B0008091910016
:101220008260809391008091910081608093910011
:10123000809190008160809390008091A1008260F5
:101240008093A1008091A10081608093A100809192
:10125000A00081608093A000809121018260809332
:1012600021018091210181608093210180912001E1
:1012700081608093200180917A00846080937A005D
:1012800080917A00826080937A0080917A008160F8
:1012900080937A0080917A00806880937A0010921F
:1012A000C10062E083E10E94330262E082E10E94B9
:1012B000330261E085E00E94330261E08AE00E942F
:1012C000330261E087E00E94330261E08DE00E941A
:1012D000330261E082E00E94330261E089E00E9413
:1012E000330262E086E00E94330261E084E00E9403
:1012F000330261E083E00E94330261E084E40E94F3
:1013000033021092A9031092A8031092A70310921F
:10131000A6030E94290382ED92E09093A503809397
:10132000A40383ED92E09093A3038093A203109211
:10133000D7038091DC03823018F098E09093D703B4
:101340008093DA0362E370E080E090E00E94A00204
:101350006091DD0382ED93E00E94EE0368EE73E09E
:1013600080E090E00E94A00260E382ED93E00E94A2
:10137000D8040BE416E4C8010197F1F760E382EDAD
:1013800093E00E94D804C8010197F1F760E382ED71
:1013900093E00E94D80483E592E00197F1F760E2C0
:1013A00082ED93E00E94D8046091D703606240E030
:1013B00082ED93E00E94F10484E08093D80340E042
:1013C0006CE082ED93E00E94F1040E94080582E047
:1013D0008093D90340E066E082ED93E00E94F1043F
:1013E00040E062E082ED93E00E94F1048BE39FE134
:1013F0000197F1F788E08093DD0360E082ED93E0F0
:101400000E94EE030E9408058CE2482E5524539456
:10141000612C712C11E083E10E94DC014C0182E11E
:101420000E94DC019EA38DA388E30E9464025C01FC
:1014300086E00E94DC011C0187E30E9464027C01BB
:1014400086E30E9464026C012FB7F8948091B20386
:101450009091B303A091B403B091B5032FBF409115
:10146000AD035091AE036091AF037091B003841B44
:10147000950BA60BB70B40910002509101026091B1
:10148000020270910302481759076A077B0770F43C
:101490006BEC72E08CEC93E00E9457066BEC72E010
:1014A00086EC93E00E9457060E94080501E08AE955
:1014B000E81683E0F8060CF000E09AE9E91693E0FC
:1014C000F9060CF061C061E084E40E9405026BEC57
:1014D00072E0CE0101960E94ED0660E372E0CE015B
:1014E00043960E94ED0628EB3BE040E050E0BE0151
:1014F0006F5F7F4FCE0143960E947806CE014396E0
:101500000E94FE06CE0101960E94FE060093AC03E7
:10151000232809F04BC061E084E00E94050261E0ED
:1015200083E00E9405021092AB0360E08DE00E9410
:10153000050260E082E00E9405026BE472E0CE01E9
:1015400001960E94ED066AE572E0CE0143960E9484
:10155000ED0628E833E140E050E0BE016F5F7F4FC9
:10156000CE0143960E947806CE0143960E94FE0665
:10157000CE0101960E94FE0680E090E0892B09F4DE
:101580004ACF0E94000046CF8091AC03882309F423
:10159000BDCF60E084E40E9405026BEC72E0CE01F6
:1015A00001960E94ED066CE372E099CF60E084E062
:1015B0000E94050260E083E00E9405028DA19EA1C9
:1015C0000197D9F461E085E00E94050261E08AE0BC
:1015D0000E9405021092AB0360E08DE00E940502BC
:1015E00060E082E00E9405026BEC72E0CE010196A1
:1015F0000E94ED066BE672E0A8CF60E085E00E94F5
:10160000050260E08AE00E940502892809F031C1E4
:101610001093AB03B601DD0C880B990B0E94AE0C46
:1016200020E030EC4FE754E40E941B0E20E030E055
:1016300040EA50E40E940D0D20E030E048EC52E416
:101640000E940D0D6B017C0120E030E048EC51E47C
:101650000E94C30E87FD10C161E089E00E9405026F
:101660006FE772E0CE0143960E94ED061A8E198E46
:101670001C8E1B8E1E8E1D8EC701B6010E948D0E04
:10168000CB014AE0BE016F5F7F4F0E94770CBE0125
:101690006F5F7F4FCE0149960E9457066CE872E05B
:1016A000CE014F960E94ED064D8D5E8D698D7A8D2F
:1016B000CE014F960E94F805811104C0CE014F96CD
:1016C0000E9424069FED99831A8241E050E0BE01FA
:1016D0006F5F7F4FCE014F960E94F805811104C0C5
:1016E000CE014F960E94240641E050E067E972E087
:1016F000CE014F960E94F805811104C0CE014F968D
:101700000E9424061A8219821C821B821E821D825C
:10171000BE01615E7F4FCE0101960E94610628EBFB
:101720003BE040E050E0BE016D5E7F4FCE01019690
:101730000E947806CE0101960E94FE06CE014F96C9
:101740000E94FE06CE0149960E94FE06CE014396F7
:101750000E94FE061092AA0324E630E0D5010E9402
:10176000D00E2FEF33E040E050E00E94CB0D490156
:101770005A017901232B69F51092AB0367EA72E0F5
:10178000CE0101960E94ED0663EB72E0CE01439616
:101790000E94ED0628E833E140E050E0BE016F5FB3
:1017A0007F4FCE0143960E947806CE0143960E9459
:1017B000FE06CE0101960E94FE0660E087E00E94D0
:1017C000050260E085E00E94050260E08AE00E9478
:1017D00005020091AB03602F8DE00E940502602F8F
:1017E00082E00E940502C401019760E00A97E8F5D3
:1017F00081E00E9413058FEB92E00E9496054AE07B
:10180000C501B401B7FE0EC041E06DE282ED93E088
:101810000E94F10466277727CB01681979098A09A4
:101820009B094AE00E94480587EC92E00E949605D9
:1018300086E0E816F1040CF049C080E00E94130530
:101840008CEC92E00E9496052FB7F8946091B20359
:101850007091B3038091B4039091B5032FBFA3019E
:1018600092010E94EA0D622F617087E00E940502DA
:1018700083CE1092AB03CECE60E089E00E940502D9
:101880008091AA03811168CF6BEC72E0CE010196C2
:101890000E94ED0669E972E0CE0143960E94ED06D2
:1018A00028EB3BE040E050E0BE016F5F7F4FCE0190
:1018B00043960E947806CE0143960E94FE06CE0112
:1018C00001960E94FE061093AA0346CF80E00E9474
:1018D00013058EED92E00E94960561E0C6CF86EC7E
:1018E00093E00E94FE068CEC93E00C94FE06BB276E
:1018F0004A3031F4992322F4BDE2909581959F4FAF
:101900000C94830CBB27FB015527AA27880F991F2E
:10191000AA1FA41710F0A41B83955051B9F7A05D1E
:10192000AA3308F0A95DA193009779F7B111B1939B
:101930001192CB010C949C0CDC01FC01672F71917E
:101940007723E1F7329704C07C916D9370836291A5
:10195000AE17BF07C8F30895E89409C097FB3EF49B
:1019600090958095709561957F4F8F4F9F4F9923EC
:10197000A9F0F92F96E9BB279395F695879577956A
:101980006795B795F111F8CFFAF4BB0F11F460FF2A
:101990001BC06F5F7F4F8F4F9F4F16C0882311F082
:1019A00096E911C0772321F09EE8872F762F05C096
:1019B000662371F096E8862F70E060E02AF09A9531
:1019C000660F771F881FDAF7880F9695879597F926
:1019D0000895990F0008550FAA0BE0E8FEEF1616C0
:1019E0001706E807F907C0F012161306E407F50713
:1019F00098F0621B730B840B950B39F40A2661F087
:101A0000232B242B252B21F408950A2609F4A14029
:101A1000A6958FEF811D811D08950E94200D0C94C5
:101A2000910D0E94830D38F00E948A0D20F09523BD
:101A300011F00C947A0D0C94800D11240C94C50DAA
:101A40000E94A20D70F3959FC1F3950F50E0551FB2
:101A5000629FF001729FBB27F00DB11D639FAA2703
:101A6000F00DB11DAA1F649F6627B00DA11D661F52
:101A7000829F2227B00DA11D621F739FB00DA11D73
:101A8000621F839FA00D611D221F749F3327A00D2D
:101A9000611D231F849F600D211D822F762F6A2FC9
:101AA00011249F5750409AF0F1F088234AF0EE0F2E
:101AB000FF1FBB1F661F771F881F91505040A9F75B
:101AC0009E3F510580F00C947A0D0C94C50D5F3F3C
:101AD000E4F3983ED4F3869577956795B795F79597
:101AE000E7959F5FC1F7FE2B880F911D969587950F
:101AF00097F9089597F99F6780E870E060E008958E
:101B00009FEF80EC089500240A9416161706180615
:101B10000906089500240A941216130614060506F1
:101B20000895092E0394000C11F4882352F0BB0F82
:101B300040F4BF2B11F460FF04C06F5F7F4F8F4FE5
:101B40009F4F089557FD9058440F551F59F05F3F20
:101B500071F04795880F97FB991F61F09F3F79F0CF
:101B600087950895121613061406551FF2CF469551
:101B7000F1DF08C0161617061806991FF1CF8695D3
:101B80007105610508940895E894BB2766277727B7
:101B9000CB0197F90895052E97FB1EF400940E943F
:101BA000E20D57FD07D00E94EA0D07FC03D04EF46A
:101BB0000C94E20D50954095309521953F4F4F4F35
:101BC0005F4F089590958095709561957F4F8F4FE9
:101BD0009F4F0895A1E21A2EAA1BBB1BFD010DC049
:101BE000AA1FBB1FEE1FFF1FA217B307E407F507CD
:101BF00020F0A21BB30BE40BF50B661F771F881FA9
:101C0000991F1A9469F760957095809590959B013E
:101C1000AC01BD01CF010895A29FB001B39FC001E7
:101C2000A39F700D811D1124911DB29F700D811D08
:101C30001124911D08950E942F0E0C94910D0E9465
:101C40008A0D58F00E94830D40F029F45F3F29F07F
:101C50000C947A0D51110C94C50D0C94800D0E94BA
:101C6000A20D68F39923B1F3552391F3951B550BFE
:101C7000BB27AA2762177307840738F09F5F5F4F5F
:101C8000220F331F441FAA1FA9F335D00E2E3AF09E
:101C9000E0E832D091505040E695001CCAF72BD0B6
:101CA000FE2F29D0660F771F881FBB1F2617370707
:101CB0004807AB07B0E809F0BB0B802DBF01FF2739
:101CC00093585F4F3AF09E3F510578F00C947A0D8F
:101CD0000C94C50D5F3FE4F3983ED4F38695779559
:101CE0006795B795F7959F5FC9F7880F911D9695F2
:101CF000879597F90895E1E0660F771F881FBB1F4E
:101D0000621773078407BA0720F0621B730B840BFA
:101D1000BA0BEE1F88F7E09508950E94940E689420
:101D2000B1110C94C50D08950E94AA0D88F09F571B
:101D300098F0B92F9927B751B0F0E1F0660F771FEF
:101D4000881F991F1AF0BA95C9F714C0B13091F0E5
:101D50000E94C40DB1E008950C94C40D672F782F34
:101D60008827B85F39F0B93FCCF3869577956795AA
:101D7000B395D9F73EF490958095709561957F4F16
:101D80008F4F9F4F08950E94E90C08F48FEF08953C
:101D9000EE0FFF1F881F8BBF0790F691E02D19945F
:101DA0000E940C0EB7FF0895821B930B08950F93AA
:101DB0001F93CF93DF938230910510F482E090E07F
:101DC000E091E003F091E10330E020E0B0E0A0E03A
:101DD000309799F42115310509F44AC0281B390BB5
:101DE00024303105D8F58A819B816115710589F10F
:101DF000FB0193838283FE0111C0408151810281E6
:101E0000138148175907E0F04817590799F41097BC
:101E100061F012960C93129713961C933296CF0191
:101E2000DF91CF911F910F9108950093E0031093DC
:101E3000E103F4CF2115310551F04217530738F073
:101E4000A901DB019A01BD01DF01F801C1CFEF015A
:101E5000F9CF9093E1038093E003CDCFFE01E20F31
:101E6000F31F819391932250310939832883D7CF6F
:101E70002091DE033091DF03232B41F420910602F1
:101E8000309107023093DF032093DE032091040298
:101E9000309105022115310541F42DB73EB740912F
:101EA000080250910902241B350BE091DE03F091EA
:101EB000DF03E217F307A0F42E1B3F0B28173907A7
:101EC00078F0AC014E5F5F4F2417350748F04E0F96
:101ED0005F1F5093DF034093DE03819391939FCF65
:101EE000F0E0E0E09CCFCF93DF930097E9F0FC01B6
:101EF000329713821282A091E003B091E103ED01C9
:101F000030E020E01097A1F420813181820F931FEF
:101F10002091DE033091DF032817390709F061C0F3
:101F2000F093DF03E093DE03DF91CF910895EA01A0
:101F3000CE17DF07E8F54A815B819E014115510507
:101F4000B1F7E901FB83EA8349915991C40FD51F89
:101F5000EC17FD0761F4808191810296840F951F33
:101F6000E90199838883828193819B838A83F0E04E
:101F7000E0E012968D919C9113970097B9F52D9101
:101F80003C911197CD010296820F931F2091DE03A1
:101F90003091DF032817390739F6309751F5109241
:101FA000E1031092E003B093DF03A093DE03BCCF04
:101FB000D383C28340815181840F951FC817D907ED
:101FC00061F44E5F5F4F88819981480F591F51839B
:101FD00040838A819B81938382832115310509F097
:101FE000B0CFF093E103E093E0039ECFFD01DC016D
:101FF000C0CF13821282D7CF4F925F926F927F929F
:102000008F929F92AF92BF92CF92DF92EF92FF9208
:102010000F931F93CF93DF938C01009799F4CB011B
:10202000DF91CF911F910F91FF90EF90DF90CF90B4
:10203000BF90AF909F908F907F906F905F904F90E8
:102040000C94D70EFC01E60FF71F9C0122503109BA
:10205000E217F30708F4AEC0D901CD91DC911197D6
:10206000C617D70720F1C530D10578F0CE01049707
:102070008617970750F0C61BD70B2297C193D193B1
:102080006D937C93CF010E94730FC801DF91CF91B4
:102090001F910F91FF90EF90DF90CF90BF90AF9086
:1020A0009F908F907F906F905F904F9008955B010D
:1020B000AC1ABD0A4C018C0E9D1EA091E003B0919C
:1020C000E103512C412CF12CE12C109731F580913A
:1020D000DE039091DF038815990509F05CC0461670
:1020E000570608F058C080910402909105020097AD
:1020F00041F48DB79EB74091080250910902841BAC
:10210000950BE817F90708F055C0F093DF03E0934B
:10211000DE03F90171836083B8CF8D919C91119793
:1021200012966C90129713967C901397A815B90588
:1021300059F56C0142E0C40ED11CCA14DB0420F135
:10214000AC014A195B09DA011296159780F0628298
:10215000738251834083D9016D937C93E114F10420
:1021600071F0D7011396FC93EE9312978ECF2296BF
:102170008C0F9D1FF90191838083F301EFCFF093C2
:10218000E103E093E00381CF4816590608F42C01DF
:102190007D01D3019ACFCB010E94D70E7C0100971D
:1021A00049F0AE01B8010E94DD10C8010E94730F12
:1021B00087016BCF10E000E068CFFB01DC0102C0BB
:1021C00001900D9241505040D8F70895FB01DC0179
:1021D0008D91019080190110D9F3990B0895FB019D
:1021E000DC0101900D920020E1F7089511E0C1E4B7
:1021F000D1E000E006C0802FFE010E94C80E2196AB
:10220000011DC234D10780E00807A9F7F894FFCF79
:10221000B80B00000000E203800000004000140042
:10222000540000000000BF039203D50468038B0331
:1022300078036903000000004205D402D5040103BD
:102240004661726C6172204163696B004661726C19
:102250006172204B6170616E6469004D6F746F72C2
:102260002043616C69736D617A0055796172693AD6
:10227000204B617069204163696B004B656D65722D
:102280002054616B696C6920446567696C21004B5F
:102290006C696D61204163696C64690053696361B5
:1022A0006B6C696B3A200043004B6C696D61204B8D
:1022B0006170616E6469004D6F746F722044757255
:1022C00064750059616B69742042697474690059BE
:1022D000616B69743A200025202020004B726974DC
:1022E000696B3A2059616B697420417A20005579F5
:1022F0006172693A2059616B697420417A2020002B
:00000001FF
